:040A0D00C100C10162
:0D0A2900120A363004FDC2041209A780F63F
:1009A700E50C700CE50B7008200005D2001209EE6B
:1009B700050CE50C7002050B64F0450B7004F50B94
:0209C700F50C2D
:0109C900220B
:040A1100C102C1035A
:03000B00020A489E
:050A4800C28DD2043252
:03002B0002094582
:10094500C0E0C0F0C083C082C0D075D000C000C078
:1009550001C002C003C004C005C006C007C2CF1253
:10096500088CD007D006D005D004D003D002D00122
:0D097500D000D0D0D082D083D0F0D0E032BE
:030023000209824D
:1009820030990EC299200206759941D20232C202F2
:1009920032309810C2982003098599A0B281750A55
:0409A2000532C20355
:0109A600321E
:090A3600120A3F1209FE0209CA6E
:0F09FE005389F0438902758A06758C06D28C22C4
:1009CA00D29EC29F53890F438920758DEAD28ED257
:0409DA0099D29C22F0
:090A3F00D288D2A9D2ACD2AF22B8
:050A1500010A06C10406
:1009DE00E4F5C9F5C875CA1875CBFCD2CAD2AD22DA
:1008F900E5087035E50914601414601B146022249E
:10090900037026C290C291D292D293801CD290C217
:1009190091C292D2938012D290D291C292C2938004
:1009290008C290D291D292C2930509E509700205D5
:0C09390008640445087004F508F5092264
:030A4D00B2CA2208
:0E0A1B00EF3395E0FEEF24D0FFEE34FFFE2215
:1009EE00E4F5C9F5C875CA5975CBFFD2CAD2AD2286
:10088C00E5094508700AC290C291D292D293804178
:10089C00E50AB5090EE4B5080AD290C291C292D20B
:1008AC0093802EE50A75F002A4B5090FE5F0B508A2
:1008BC000AD290D291C292C2938016E50A75F003C7
:1008CC00A4B5090DE5F0B50808C290D291D292C238
:1008DC00930509E50970020508E50A75F004A4B54D
:0D08EC00090AE5F0B50805E4F508F5092254
:03000000020800F3
:0C080000787FE4F6D8FD758120020847DF
:10080C00020A29E493A3F8E493A34003F68001F2CF
:10081C0008DFF48029E493A3F85407240CC8C333ED
:10082C00C4540F4420C8834004F456800146F6DFBC
:10083C00E4800B0102040810204080900A0DE47E35
:10084C00019360BCA3FF543F30E509541FFEE493B1
:10085C00A360010ECF54C025E060A840B8E493A378
:10086C00FAE493A3F8E493A3C8C582C8CAC583CAA3
:10087C00F0A3C8C582C8CAC583CADFE9DEE780BE5B
:010A1A0000DB
:00000001FF
