:0409B200C100C101BE
:0D09A5001209C83002FDC20212091780F6C7
:10091700E50D7023E50C701F20000AD200E4F508EE
:10092700F50912098620820A3001071209D8C20187
:100937008005308202D201050DE50D7002050C64B9
:0909470004450C7004F50CF50DDB
:010950002284
:03000B000209BD2A
:0B09BD00758A68758CC5C28DD20232AD
:03002B000208DAEE
:1008DA00C0E0C0F0C083C082C0D075D000C000C0E4
:1008EA0001C002C003C004C005C006C007C2CF12BF
:1008FA00088CD007D006D005D004D003D002D0018E
:0D090A00D000D0D0D082D083D0F0D0E03229
:030023000209517E
:10095100C0D075D000C007309904C299800C30987E
:0F09610009C298AF99750A008F0BD007D0D0321A
:0909C8001209D11209960209700E
:0F0996005389F0438901758A63758CC5D28C2211
:10097000D29EC29F53890F438920758DEAD28E750E
:0609800099437599352230
:0709D100D288D2A9D2AF22A7
:0609B600020A0006C10266
:10098600E4F5C9F5C875CA1875CBFCD2CAD2AD2232
:10088C00E5087037E50914601614601D1460242403
:10089C00037028B281C290C291D292D293801CD2A2
:1008AC0090C291C292D2938012D290D291C292C233
:1008BC00938008C290D291D292C2930509E5097037
:0E08CC00020508640445087004F508F50922C9
:0309D800B2CA227E
:03000000020800F3
:0C080000787FE4F6D8FD758120020847DF
:10080C000209A5E493A3F8E493A34003F68001F254
:10081C0008DFF48029E493A3F85407240CC8C333ED
:10082C00C4540F4420C8834004F456800146F6DFBC
:10083C00E4800B01020408102040809009B2E47E91
:10084C00019360BCA3FF543F30E509541FFEE493B1
:10085C00A360010ECF54C025E060A840B8E493A378
:10086C00FAE493A3F8E493A3C8C582C8CAC583CAA3
:10087C00F0A3C8C582C8CAC583CADFE9DEE780BE5B
:0109BC00003A
:00000001FF
